{
  "contractName": "Faucet",
  "abi": [
    {
      "inputs": [
        {
          "internalType": "uint256",
          "name": "",
          "type": "uint256"
        }
      ],
      "name": "funders",
      "outputs": [
        {
          "internalType": "address",
          "name": "",
          "type": "address"
        }
      ],
      "stateMutability": "view",
      "type": "function",
      "constant": true
    },
    {
      "inputs": [],
      "name": "numFunders",
      "outputs": [
        {
          "internalType": "uint256",
          "name": "",
          "type": "uint256"
        }
      ],
      "stateMutability": "view",
      "type": "function",
      "constant": true
    },
    {
      "inputs": [],
      "name": "owner",
      "outputs": [
        {
          "internalType": "address",
          "name": "",
          "type": "address"
        }
      ],
      "stateMutability": "view",
      "type": "function",
      "constant": true
    },
    {
      "inputs": [],
      "name": "test",
      "outputs": [
        {
          "internalType": "uint256",
          "name": "",
          "type": "uint256"
        }
      ],
      "stateMutability": "pure",
      "type": "function",
      "constant": true
    },
    {
      "inputs": [],
      "name": "testNum",
      "outputs": [
        {
          "internalType": "uint256",
          "name": "",
          "type": "uint256"
        }
      ],
      "stateMutability": "view",
      "type": "function",
      "constant": true
    },
    {
      "stateMutability": "payable",
      "type": "receive",
      "payable": true
    },
    {
      "inputs": [
        {
          "internalType": "address",
          "name": "newOwner",
          "type": "address"
        }
      ],
      "name": "transferOwnership",
      "outputs": [],
      "stateMutability": "nonpayable",
      "type": "function"
    },
    {
      "inputs": [],
      "name": "emitLog",
      "outputs": [
        {
          "internalType": "bytes32",
          "name": "",
          "type": "bytes32"
        }
      ],
      "stateMutability": "pure",
      "type": "function",
      "constant": true
    },
    {
      "inputs": [],
      "name": "addFunds",
      "outputs": [],
      "stateMutability": "payable",
      "type": "function",
      "payable": true
    },
    {
      "inputs": [],
      "name": "getAllFunders",
      "outputs": [
        {
          "internalType": "address[]",
          "name": "",
          "type": "address[]"
        }
      ],
      "stateMutability": "view",
      "type": "function",
      "constant": true
    },
    {
      "inputs": [
        {
          "internalType": "uint256",
          "name": "index",
          "type": "uint256"
        }
      ],
      "name": "getFunderIndex",
      "outputs": [
        {
          "internalType": "address",
          "name": "",
          "type": "address"
        }
      ],
      "stateMutability": "view",
      "type": "function",
      "constant": true
    },
    {
      "inputs": [
        {
          "internalType": "uint256",
          "name": "amount",
          "type": "uint256"
        }
      ],
      "name": "withdraw",
      "outputs": [],
      "stateMutability": "nonpayable",
      "type": "function"
    }
  ],
  "bytecode": "0x608060405234801561001057600080fd5b50336000806101000a81548173ffffffffffffffffffffffffffffffffffffffff021916908373ffffffffffffffffffffffffffffffffffffffff1602179055506103e8600181905550610a7b806100696000396000f3fe6080604052600436106100a05760003560e01c8063ae28f1ed11610064578063ae28f1ed14610172578063b96326891461019d578063dc0d3dff146101c8578063f2fde38b14610205578063f42c13bf1461022e578063f8a8fd6d14610259576100a7565b80632e1a7d4d146100ac5780636fbbb55d146100d557806389a620db146101005780638da5cb5b1461013d578063a26759cb14610168576100a7565b366100a757005b600080fd5b3480156100b857600080fd5b506100d360048036038101906100ce91906106ad565b610284565b005b3480156100e157600080fd5b506100ea6102ce565b6040516100f791906107ca565b60405180910390f35b34801561010c57600080fd5b50610127600480360381019061012291906106ad565b6103c8565b60405161013491906107fb565b60405180910390f35b34801561014957600080fd5b50610152610405565b60405161015f91906107fb565b60405180910390f35b610170610429565b005b34801561017e57600080fd5b50610187610531565b6040516101949190610825565b60405180910390f35b3480156101a957600080fd5b506101b2610537565b6040516101bf9190610825565b60405180910390f35b3480156101d457600080fd5b506101ef60048036038101906101ea91906106ad565b61053d565b6040516101fc91906107fb565b60405180910390f35b34801561021157600080fd5b5061022c6004803603810190610227919061086c565b610570565b005b34801561023a57600080fd5b50610243610641565b60405161025091906108b2565b60405180910390f35b34801561026557600080fd5b5061026e610669565b60405161027b9190610825565b60405180910390f35b3373ffffffffffffffffffffffffffffffffffffffff166108fc829081150290604051600060405180830381858888f193505050501580156102ca573d6000803e3d6000fd5b5050565b6060600060025467ffffffffffffffff8111156102ee576102ed6108cd565b5b60405190808252806020026020018201604052801561031c5781602001602082028036833780820191505090505b50905060005b6002548110156103c0576003600082815260200190815260200160002060009054906101000a900473ffffffffffffffffffffffffffffffffffffffff16828281518110610373576103726108fc565b5b602002602001019073ffffffffffffffffffffffffffffffffffffffff16908173ffffffffffffffffffffffffffffffffffffffff168152505080806103b89061095a565b915050610322565b508091505090565b60006003600083815260200190815260200160002060009054906101000a900473ffffffffffffffffffffffffffffffffffffffff169050919050565b60008054906101000a900473ffffffffffffffffffffffffffffffffffffffff1681565b6000805b6002548110156104b9573373ffffffffffffffffffffffffffffffffffffffff166003600083815260200190815260200160002060009054906101000a900473ffffffffffffffffffffffffffffffffffffffff1673ffffffffffffffffffffffffffffffffffffffff16036104a657600191506104b9565b80806104b19061095a565b91505061042d565b508061052e576000600260008154809291906104d49061095a565b919050559050336003600083815260200190815260200160002060006101000a81548173ffffffffffffffffffffffffffffffffffffffff021916908373ffffffffffffffffffffffffffffffffffffffff160217905550505b50565b60015481565b60025481565b60036020528060005260406000206000915054906101000a900473ffffffffffffffffffffffffffffffffffffffff1681565b60008054906101000a900473ffffffffffffffffffffffffffffffffffffffff1673ffffffffffffffffffffffffffffffffffffffff163373ffffffffffffffffffffffffffffffffffffffff16146105fe576040517f08c379a00000000000000000000000000000000000000000000000000000000081526004016105f590610a25565b60405180910390fd5b806000806101000a81548173ffffffffffffffffffffffffffffffffffffffff021916908373ffffffffffffffffffffffffffffffffffffffff16021790555050565b60007f48656c6c6f2c20576f726c642100000000000000000000000000000000000000905090565b60006064905090565b600080fd5b6000819050919050565b61068a81610677565b811461069557600080fd5b50565b6000813590506106a781610681565b92915050565b6000602082840312156106c3576106c2610672565b5b60006106d184828501610698565b91505092915050565b600081519050919050565b600082825260208201905092915050565b6000819050602082019050919050565b600073ffffffffffffffffffffffffffffffffffffffff82169050919050565b600061073182610706565b9050919050565b61074181610726565b82525050565b60006107538383610738565b60208301905092915050565b6000602082019050919050565b6000610777826106da565b61078181856106e5565b935061078c836106f6565b8060005b838110156107bd5781516107a48882610747565b97506107af8361075f565b925050600181019050610790565b5085935050505092915050565b600060208201905081810360008301526107e4818461076c565b905092915050565b6107f581610726565b82525050565b600060208201905061081060008301846107ec565b92915050565b61081f81610677565b82525050565b600060208201905061083a6000830184610816565b92915050565b61084981610726565b811461085457600080fd5b50565b60008135905061086681610840565b92915050565b60006020828403121561088257610881610672565b5b600061089084828501610857565b91505092915050565b6000819050919050565b6108ac81610899565b82525050565b60006020820190506108c760008301846108a3565b92915050565b7f4e487b7100000000000000000000000000000000000000000000000000000000600052604160045260246000fd5b7f4e487b7100000000000000000000000000000000000000000000000000000000600052603260045260246000fd5b7f4e487b7100000000000000000000000000000000000000000000000000000000600052601160045260246000fd5b600061096582610677565b91507fffffffffffffffffffffffffffffffffffffffffffffffffffffffffffffffff82036109975761099661092b565b5b600182019050919050565b600082825260208201905092915050565b7f4f6e6c7920746865206f776e65722063616e2063616c6c20746869732066756e60008201527f6374696f6e210000000000000000000000000000000000000000000000000000602082015250565b6000610a0f6026836109a2565b9150610a1a826109b3565b604082019050919050565b60006020820190508181036000830152610a3e81610a02565b905091905056fea2646970667358221220881c1fd77d93997880420f172ee8205499658894ed876db3a89a5f7be98280f264736f6c634300080d0033",
  "immutableReferences": {},
  "source": "// SPDX-License-Identifier: MIT\r\npragma solidity ^0.8.13;\r\n\r\nimport \"./Owned.sol\";\r\nimport \"./Logger.sol\";\r\nimport \"./IFaucet.sol\";\r\n\r\ncontract Faucet is Owned, Logger, IFaucet {\r\n    uint public numFunders;\r\n    mapping(uint => address) public funders;\r\n\r\n    function transferOwnership(address newOwner) external onlyOwner() {\r\n        owner = newOwner;\r\n    }\r\n\r\n    modifier withdrawLimit(uint amount) {\r\n        require(\r\n            amount <= 1000000000000000000, \r\n            \"You can not withdraw more than 1 ETH at once!\"\r\n        );\r\n        _;\r\n    } \r\n\r\n    receive() external payable {}\r\n\r\n    function emitLog() public override pure returns (bytes32) {\r\n        return \"Hello, World!\";\r\n    }\r\n\r\n    function addFunds() override external payable {\r\n\r\n        bool exists = false;\r\n        for (uint a = 0; a < numFunders; a++) {\r\n            if (funders[a] == msg.sender) {\r\n                exists = true;\r\n                break;\r\n            }\r\n        }\r\n        if (!exists) {\r\n            uint index = numFunders++;\r\n            funders[index] = msg.sender;\r\n        }\r\n    }\r\n\r\n    function getAllFunders() external view returns (address[] memory) {\r\n        address[] memory _funders = new address[](numFunders);\r\n        for (uint i = 0; i < numFunders; i++) {\r\n            _funders[i] = funders[i];\r\n        }\r\n        return _funders;\r\n    }\r\n\r\n    function getFunderIndex(uint index) external view returns (address) {\r\n        return funders[index];\r\n    }\r\n\r\n    function withdraw(uint256 amount) override external {\r\n            payable(msg.sender).transfer(amount);\r\n    }\r\n}\r\n\r\n// const instance = await Faucet.deployed()\r\n// instance.addFunds({from: accounts[0], value: \"1000000000000000\"})\r\n// instance.withdraw(\"50000000000000\", {from: accounts[1]})",
  "sourcePath": "D:\\Work\\web3\\faucet\\contracts\\FaucetContract.sol",
  "compiler": {
    "name": "solc",
    "version": "0.8.13+commit.abaa5c0e.Emscripten.clang"
  },
  "schemaVersion": "3.4.15",
  "updatedAt": "2023-08-21T20:09:29.946Z",
  "networkType": "ethereum",
  "devdoc": {
    "kind": "dev",
    "methods": {},
    "version": 1
  },
  "userdoc": {
    "kind": "user",
    "methods": {},
    "version": 1
  }
}